:100000000C9453000C947B000C947B000C947B00AC
:100010000C947B000C947B000C947B000C947B0074
:100020000C947B000C947B000C947B000C947B0064
:100030000C947B000C947B000C947B000C947B0054
:100040000C949A020C947B000C940A030C94E40226
:100050000C947B000C947B000C947B000C947B0034
:100060000C947B000C947B0000000000250028000D
:100070002B0000000000240027002A0004040404D0
:100080000404040402020202020203030303030342
:10009000010204081020408001020408102001021F
:1000A00004081020440511241FBECFEFD8E0DEBFA6
:1000B000CDBF22E0A6E5B1E001C01D92AC30B20791
:1000C000E1F711E0A0E0B1E0ECEAFFE002C005904A
:1000D0000D92A635B107D9F710E0C3E5D0E004C012
:1000E0002197FE010E94D205C235D107C9F70E94AF
:1000F0003C030C94D4070C9400008E3008F08E5012
:100100008770806480937C0080917A008064809303
:100110007A0080917A0086FDFCCF80917800209152
:10012000790090E0922B0895CF92DF92EF92FF92A8
:100130000F931F93CF93DF936C017A018B01C0E083
:10014000D0E0CE15DF0581F0D8016D918D01D6018B
:10015000ED91FC910190F081E02DC6010995892B6C
:1001600011F02196EECF7E01C701DF91CF911F9153
:100170000F91FF90EF90DF90CF900895089580E069
:1001800090E00895FC01538D448D252F30E0842F9D
:1001900090E0821B930B541710F0CF9608950197AF
:1001A0000895FC01918D828D981761F0828DDF0199
:1001B000A80FB11D5D968C91928D9F5F9F73928F5A
:1001C00090E008958FEF9FEF0895FC01918D828D4F
:1001D000981731F0828DE80FF11D858D90E008951C
:1001E0008FEF9FEF0895FC01918D228D892F90E074
:1001F000805C9F4F821B91098F739927089582E637
:1002000091E00E94F30021E0892B09F420E0822F85
:100210000895FC01848DDF01A80FB11DA35ABF4FC3
:100220002C91848D90E001968F739927848FA689F5
:10023000B7892C93A089B1898C91837080648C9349
:10024000938D848D981306C00288F389E02D8081F8
:100250008F7D80830895EF92FF920F931F93CF932A
:10026000DF93EC0181E0888F9B8D8C8D981305C006
:10027000E889F989808185FD26C0F62E0B8D10E076
:100280000F5F1F4F0F731127E02E8C8DE8120CC0EB
:100290000FB607FCFACFE889F989808185FFF5CF91
:1002A000CE010E940901F1CF8B8DFE01E80FF11DF7
:1002B000E35AFF4FF0829FB7F8940B8FEA89FB89CE
:1002C000808180620AC09FB7F894EE89FF896083BD
:1002D000E889F98980818370806480839FBF81E091
:1002E00090E0DF91CF911F910F91FF90EF900895D3
:1002F000CF93DF93EC01888D8823C9F0EA89FB89CD
:10030000808185FD05C0A889B9898C9186FD0FC0C3
:100310000FB607FCF5CF808185FFF2CFA889B98998
:100320008C9185FFEDCFCE010E940901E7CFDF91CF
:10033000CF91089580E090E0892B29F00E94FF0082
:1003400081110C9400000895CF93DF93EC01888114
:100350009981009711F00E947006198218821D82FF
:100360001C821B821A82DF91CF9108950E94BF07E1
:100370000F931F93CF93DF93EC01888199810097AE
:1003800029F02A813B812617370788F48B016F5F9C
:100390007F4F0E94F906009761F0998388831B8341
:1003A0000A832C813D81232B11F4FC01108281E012
:1003B00001C080E0DF91CF911F910F910895EF92DE
:1003C000FF920F931F93CF93DF936115710511F483
:1003D00080E01CC041155105C1F07B01EC018C810E
:1003E0009D818A01080F191FB801CE010E94B80132
:1003F000882371F3288139818C819D81B701820F17
:10040000931F0E94CD071D830C8381E0DF91CF9164
:100410001F910F91FF90EF900895EF92FF920F932D
:100420001F93CF93DF93CDB7DEB727970FB6F8941E
:10043000DEBF0FBECDBF7C01CB014AE08E010F5F56
:100440001F4FB8010E947105F80101900020E9F7E3
:100450003197AF01401B510BB801C7010E94DF016A
:10046000811103C0C7010E94A401C70127960FB6DE
:10047000F894DEBF0FBECDBFDF91CF911F910F91DA
:10048000FF90EF900895CF93DF93EC016115710514
:1004900061F0FB0101900020E9F73197AF01461BA5
:1004A000570B0E94DF01811103C0CE010E94A401FD
:1004B000CE01DF91CF910895EF92FF920F931F939A
:1004C000CF93DF93FC011182108213821282158276
:1004D00014828617970739F1DB010D911C91119752
:1004E0000115110501F1EC011496ED90FC901597A2
:1004F000B7010E94B801811109C0CE01DF91CF91EF
:100500001F910F91FF90EF900C94A401FD82EC825B
:10051000B80188819981DF91CF911F910F91FF9050
:10052000EF900C94CD07DF91CF911F910F91FF9029
:10053000EF9008951F920F920FB60F9211242F93F0
:100540003F938F939F93AF93BF93809104029091B9
:100550000502A0910602B09107023091030223E048
:10056000230F2D3720F40196A11DB11D05C026E8EB
:10057000230F0296A11DB11D209303028093040254
:1005800090930502A0930602B09307028091FF01A9
:1005900090910002A0910102B09102020196A11D6A
:1005A000B11D8093FF0190930002A0930102B093CC
:1005B0000202BF91AF919F918F913F912F910F9028
:1005C0000FBE0F901F9018951F920F920FB60F92AB
:1005D00011242F933F934F935F936F937F938F9348
:1005E0009F93AF93BF93EF93FF9382E691E00E94B6
:1005F0000901FF91EF91BF91AF919F918F917F91F1
:100600006F915F914F913F912F910F900FBE0F907F
:100610001F9018951F920F920FB60F9211242F93CF
:100620008F939F93EF93FF93E0917201F091730189
:100630008081E0917801F091790182FD12C0908172
:1006400080917B018F5F8F7320917C01821751F025
:10065000E0917B01F0E0EE59FE4F958F80937B0196
:1006600001C08081FF91EF919F918F912F910F9009
:100670000FBE0F901F901895CF93DF93CDB7DEB7C5
:100680006E970FB6F894DEBF0FBECDBF789484B5D9
:10069000826084BD84B5816084BD85B5826085BD7E
:1006A00085B5816085BD80916E00816080936E000C
:1006B00010928100809181008260809381008091FE
:1006C00081008160809381008091800081608093AF
:1006D00080008091B10084608093B1008091B0006F
:1006E00081608093B00080917A00846080937A006A
:1006F00080917A00826080937A0080917A00816094
:1007000080937A0080917A00806880937A001092BA
:10071000C100EDE9F0E02491E9E8F0E0849188235C
:1007200099F090E0880F991FFC01EE58FF4FA591BA
:10073000B491FC01E859FF4F859194918FB7F894DB
:10074000EC91E22BEC938FBF82E397E1A4E3B1E05D
:100750008093560190935701A0935801B09359018B
:1007600080915A01816081788F7780935A0110922D
:100770005B01E0917201F091730182E08083E0916E
:100780007201F09173011082E0916E01F0916F019E
:100790001082E0917001F091710180E180831092EC
:1007A0007A01E0917601F091770186E08083E09113
:1007B0007401F0917501808180618083E091740102
:1007C000F0917501808188608083E0917401F091DF
:1007D0007501808180688083E0917401F0917501DA
:1007E00080818F7D80838E010F5F1F4F6E0189E0B6
:1007F000C80ED11C82E691E00E94F300892B09F417
:1008000066C082E691E00E94D1008C3F09F05FC093
:100810005E01E5E1AE0EB11CE12CF12C2FB7F8948E
:100820008091040290910502A0910602B091070206
:100830002FBF80936A0190936B01A0936C01B093DA
:100840006D0182E691E00E94D10097FF25C02FB78D
:10085000F8948091040290910502A0910602B09153
:1008600007022FBF40916A0150916B0160916C01AA
:1008700070916D01841B950BA60BB70B409166011F
:100880005091670160916801709169018417950723
:10089000A607B707B0F21BC0F50181935F01FFEF18
:1008A000EF1AFF0A84E0E816F10409F0B7CF8D894A
:1008B0003E892F89988D80935E0130935F0120934C
:1008C000600190936101813029F0823009F10E942A
:1008D0009A0190CF88E0E6E5F1E0D80101900D9211
:1008E0008A95E1F76EEF82E691E00E942B01780194
:1008F000F70161917F0182E691E00E942B01EC14E7
:10090000FD04B1F76FEF82E691E00E942B01DFCF8B
:100910008EE00E947D004C018FE00E947D005C0112
:1009200080E10E947D003C0181E10E947D002C015C
:1009300082E10E947D001C0183E10E947D009A8F6C
:10094000898F84E10E947D009C8F8B8F85E10E94BE
:100950007D009E8F8D8F1A8619861C861B861E86AB
:100960001D868EEF89831A82F80101900020E9F735
:1009700031977F01E01AF10AB701C6010E94B80160
:10098000811104C0C6010E94A40107C0FE86ED8645
:10099000B80189859A850E94CD07B601C8010E94D9
:1009A0005C0268E171E0C8010E944302B4010E9448
:1009B0000D026FE171E00E944302B5010E940D0239
:1009C00066E271E00E944302B3010E940D026DE2F3
:1009D00071E00E944302B2010E940D0264E371E0E3
:1009E0000E944302B1010E940D026BE371E00E947C
:1009F0004302698D7A8D0E940D0262E471E00E94CB
:100A000043026B8D7C8D0E940D0269E471E00E94AF
:100A100043026D8D7E8D0E940D0260E571E00E94A3
:100A200043027C018FEF8F87188A41E050E0BE01BE
:100A3000615F7F4FC7010E94DF01811103C0C701C1
:100A40000E94A401B701CE010F960E945C02898129
:100A50009A810E94700689859A850E9470064B894A
:100A60005C896F85788982E691E00E94940042E07B
:100A700050E062E571E082E691E00E9494008F858B
:100A800098890E94700623CFE2E6F1E01382128279
:100A900088EE93E0A0E0B0E084839583A683B783DB
:100AA0008AE091E09183808385EC90E0958784874C
:100AB00084EC90E09787868780EC90E0918B808B28
:100AC00081EC90E0938B828B82EC90E0958B848B11
:100AD00086EC90E0978B868B118E128E138E148E7F
:100AE0000895BB27FB015527AA27880F991FAA1F26
:100AF000A41710F0A41B83955051B9F7A05DAA3339
:100B000008F0A95DA193009779F7B111B193119203
:100B1000CB010C948B05DC01FC01672F71917723CD
:100B2000E1F7329704C07C916D9370836291AE17A8
:100B3000BF07C8F308952F923F924F925F926F9232
:100B40007F928F929F92AF92BF92CF92DF92EF925D
:100B5000FF920F931F93CF93DF93CDB7DEB7CA1BDE
:100B6000DB0B0FB6F894DEBF0FBECDBF09942A8809
:100B7000398848885F846E847D848C849B84AA84B1
:100B8000B984C884DF80EE80FD800C811B81AA813E
:100B9000B981CE0FD11D0FB6F894DEBF0FBECDBF09
:100BA000ED010895EE0FFF1F0590F491E02D0994DB
:100BB0000F931F93CF93DF938230910510F482E05F
:100BC00090E0E0910A02F0910B0220E030E0A0E01A
:100BD000B0E0309719F140815181028113814817AB
:100BE0005907C8F08417950769F4109731F01296E9
:100BF0000C93129713961C9327C000930A0210932C
:100C00000B0222C02115310519F04217530718F4C1
:100C10009A01BD01EF01DF01F801DBCF211531059C
:100C2000F9F0281B390B2430310580F48A819B812F
:100C30006115710521F0FB019383828304C09093B9
:100C40000B0280930A02FE01329644C0FE01E20FBD
:100C5000F31F8193919322503109398328833AC03D
:100C60002091080230910902232B41F420910201C6
:100C70003091030130930902209308022091000172
:100C8000309101012115310541F42DB73EB7409156
:100C9000040150910501241B350BE0910802F091ED
:100CA0000902E217F307A0F42E1B3F0B28173907A0
:100CB00078F0AC014E5F5F4F2417350748F04E0FB8
:100CC0005F1F50930902409308028193919302C0E1
:100CD000E0E0F0E0CF01DF91CF911F910F910895F7
:100CE000CF93DF93009709F481C0FC013297138200
:100CF0001282A0910A02B0910B02109781F4208118
:100D00003181820F931F2091080230910902281728
:100D1000390751F5F0930902E093080267C0ED012D
:100D200020E030E0CE17DF0740F44A815B819E016E
:100D300041155105F1F0EA01F5CFD383C28340811B
:100D40005181840F951FC817D90759F4888199815B
:100D5000840F951F0296918380838A819B81938360
:100D600082832115310529F4F0930B02E0930A02E6
:100D70003DC0E901FB83EA8349915991C40FD51F16
:100D8000EC17FD0761F480819181840F951F029615
:100D9000E90199838883828193819B838A83E0E040
:100DA000F0E012968D919C911397009719F0FD0138
:100DB000DC01F7CF8D919C9111979D012E5F3F4FE4
:100DC000820F931F209108023091090228173907DA
:100DD00069F4309729F410920B0210920A0202C0B3
:100DE00013821282B0930902A0930802DF91CF917F
:100DF0000895A0E0B0E0EFEFF6E00C949F05EC0161
:100E0000009721F4CB010E94D805B4C0FC01E60F85
:100E1000F71F9C0122503109E217F30708F4A8C01C
:100E2000D9010D911C91119706171707B0F00530E5
:100E3000110508F49BC0C80104978617970708F4AA
:100E400095C002501109061B170B019311936D9366
:100E50007C93CF010E94700689C05B01A01AB10A81
:100E60004C01800E911EA0910A02B0910B02612CE0
:100E7000712CE12CF12C109709F446C08D919C91B6
:100E80001197A815B905B1F56C0142E0C40ED11C4B
:100E9000CA14DB0478F14C018A189B08640142E013
:100EA000C40ED11C1296BC9012971396AC91B5E06B
:100EB000CB16D10440F0B282A38391828082D90103
:100EC0006D937C9309C00E5F1F4F800F911FF90136
:100ED00091838083EB2DFA2FE114F10431F0D701D7
:100EE0001396FC93EE93129741C0F0930B02E0939C
:100EF0000A023CC06816790608F43C017D0112968E
:100F00000D90BC91A02DB7CF80910802909109025D
:100F100088169906E1F466167706C8F480910001F8
:100F200090910101009741F48DB79EB74091040163
:100F300050910501841B950BE817F907C8F4F0934D
:100F40000902E0930802F901718360830FC0CB01AD
:100F50000E94D8057C01009759F0A801BE010E94AB
:100F6000C407CE010E947006C70104C0CE0102C0B2
:100F700080E090E0CDB7DEB7EEE00C94BB0581E0F9
:100F800090E0F8940C94D407FB01DC0102C00190BE
:100F90000D9241505040D8F70895FB01DC010190BB
:0C0FA0000D920020E1F70895F894FFCFB7
:100FAC0000000C028000000000002B019400C20025
:100FBC007801F300D100E5007B224130223A002C6D
:100FCC00224131223A002C224132223A002C224179
:100FDC0033223A002C224134223A002C2241352271
:100FEC003A002C224136223A002C224137223A0078
:060FFC007D000D0A00005B
:00000001FF
